S017000041546D65676131365F4D61737465722E73726563AC
S11300000C9434000C943E000C943E000C943E007E
S11300100C943E000C943E000C943E000C943E0064
S11300200C943E000C943E000C943E000C943E0054
S11300300C943E000C943E000C943E000C943E0044
S11300400C943E000C943E000C943E000C943E0034
S11300500C943E000C943E000C943E000C943E0024
S11300600C943E000C943E0011241FBECFEFD4E04C
S1130070DEBFCDBF0E9440000C941B010C94000015
S11300808FEF8AB987B1876087B9409841984298C1
S11300900E94850080E20E94BD008FE097E20197F4
S11300A0F1F700C0000085E20E94F9009FEF24E30D
S11300B08CE0915020408040E1F700C0000081E2D4
S11300C00E948E008FE097E20197F1F700C00000D4
S11300D00E94100180FD02C0409801C0409A81FD39
S11300E002C0419801C0419A82FD02C0429801C0F9
S11300F0429A9FEF24E38CE0915020408040E1F746
S113010000C000000E94B400C5CF80E28093B80014
S1130110ECEBF0E0808184608083089594EA90930E
S1130120BC00ECEBF0E090819923ECF79091B900DE
S1130130987F903199F48093BB0084E88093BC004D
S1130140ECEBF0E080818823ECF78091B900887FA4
S1130150803431F0803231F083E0089580E00895F6
S113016081E0089582E0089584E98093BC00ECEB7B
S1130170F0E0808184FDFDCF0895BF92CF92DF929D
S1130180EF92FF920F931F93CF93DF93B82ECCEB94
S1130190D0E00F2EF4EADF2EF02D09EB10E00F2E45
S11301A0FBEBEF2EF12CF02D0F2EF4E8CF2EF02DDB
S11301B0D88288818823ECF7F8018081887F883091
S11301C0B9F7F701B082C88288818823ECF7F80177
S11301D08081887F883119F00E94B400E9CFDF91D3
S11301E0CF911F910F91FF90EF90DF90CF90BF9030
S11301F008958093BB0084E88093BC00ECEBF0E0AE
S113020080818823ECF78091B900887F883221F0BF
S1130210803321F082E0089580E0089581E008951C
S113022084E88093BC00ECEBF0E080818823ECF759
S10D02308091BB000895F894FFCFFD
S9030000FC
