S0130000554152545F4D61737465722E737265630A
S11300000C9434000C943E000C943E000C943E007E
S11300100C943E000C943E000C943E000C943E0064
S11300200C943E000C943E000C943E000C943E0054
S11300300C943E000C943E000C943E000C943E0044
S11300400C943E000C943E000C943E000C943E0034
S11300500C943E000C943E000C943E000C943E0024
S11300600C943E000C943E0011241FBECFEFD8E048
S1130070DEBFCDBF0E9457000C9470000C940000AA
S11300801092C50083E38093C400E1ECF0E080812A
S113009080618083E2ECF0E0808186608083089553
S11300A08091C0008823E4F78091C600089584B14C
S11300B0826084B90E9440000E9450008835E1F7B4
S11300C085B1826085B92FE986E891E021508040AE
S11300D09040E1F700C0000085B18D7F85B9ECCF79
S10700E0F894FFCFBE
S9030000FC
