S0140000554152545F436C61766965722E73726563AF
S11300000C9434000C943E000C943E000C943E007E
S11300100C943E000C943E000C943E000C943E0064
S11300200C943E000C943E000C943E000C943E0054
S11300300C943E000C943E000C943E000C943E0044
S11300400C943E000C943E000C943E000C943E0034
S11300500C943E000C943E000C943E000C943E0024
S11300600C943E000C943E0011241FBECFEFD8E048
S1130070DEBFCDBF0E9457000C9498000C94000082
S11300801092C50083E38093C400E1ECF0E080812A
S113009088618083E2ECF0E080818660808308954B
S11300A08093C6008091C00085FFFCCF08958AB17B
S11300B080648AB984B1807C84B987B1807F87B930
S11300C08AB18D7F8AB985B18F6385B988B18F6014
S11300D088B98BB182608BB90E9440008BB1806477
S11300E08BB92FE986E891E0215080409040E1F7F8
S11300F000C000008BB18F7B8BB92FE986E891E0BB
S1130100215080409040E1F700C0000083B183B1EA
S113011083B183B183B183B186B186B186B186B12F
S1130120349B02C087E301C088E50E945000D6CF0B
S1070130F894FFCF6D
S9030000FC
