:100000000C9434000C943E000C943E000C943E0082
:100010000C943E000C943E000C943E000C943E0068
:100020000C943E000C943E000C943E000C943E0058
:100030000C943E000C943E000C943E000C943E0048
:100040000C943E000C943E000C943E000C943E0038
:100050000C943E000C943E000C943E000C943E0028
:100060000C943E000C943E0011241FBECFEFD8E04C
:10007000DEBFCDBF0E9462000C94A0000C94000073
:1000800084B1886284B984B1846084B984B18260A7
:1000900084B98CB582658CBD08958EBD0DB407FE04
:1000A000FDCF08951092C50083E38093C400E1EC76
:1000B000F0E0808180618083E2ECF0E08081866006
:1000C000808308958BB184608BB98BB188608BB9C4
:1000D0000E94400085B1846085B985B1826085B990
:1000E0008AB180618AB90E9452004A9902C081E0B7
:1000F00001C080E095B19B7F95B99DE09A95F1F79D
:1001000000000E944D008DE08A95F1F7000085B156
:10011000846085B94B9902C081E001C080E095B14F
:100120009D7F95B99DE09A95F1F700000E944D00E2
:100130008DE08A95F1F7000085B1826085B9D5CF51
:04014000F894FFCF61
:00000001FF
